:0300000002088D66
:0C088D00787FE4F6D8FD75811E0208D4C7
:1009190057656C636F6D6500494320546573746551
:10092900722050726F6A65637400466F756E642039
:10093900494300497427732034303938204943002A
:0B094900556E6B6E6F776E2049430007
:0E0AB6000915FF0ACAFF0800FF0ACB011E0047
:10095400E4F590F5A0120A6E7BFF7A097919750DFA
:1009640000750E077D07E4FF120AA07BFF7A097960
:1009740021750D00750E117D027F01120AA07FD032
:0A0984007E07120A4E12080080FBE5
:10080000D2A0D2A2D2A4D285D2A5D283308556E579
:100810001E7052D2A330A535120AC57BFF7A097922
:1008200033750D00750E087D07E4FF120AA07BFFEB
:100830007A09793C750D00750E0C7D057F01120A51
:10084000A07FE87E03120A4E751E01803B120AC586
:100850007BFF7A097949750D00750E0A7D06E4FF64
:10086000120AA08023E51E6401701D120AC57BFFD9
:100870007A097949750D00750E0A7D06E4FF120AA2
:0D088000A07FD07E07120A4EC283C2A322C1
:010ACA002209
:010ACB002208
:100A6E007F021209F37F281209F37F0C1209F37F1C
:090A7E00011209F37F060209F3DD
:050AC5007F010209F3AE
:1009C5008F14D29053900FE51454F04290D2917F3A
:1009D500017E00120A4EC29153900FE514C454F0E3
:0E09E5004290D2917F017E00120A4EC29122F2
:1009F3008F10C29053900FE51054F04290D2917F24
:100A0300017E00120A4EC29153900FE510C454F0B8
:0E0A13004290D2917F017E00120A4EC29122C3
:10098E008B0F8A1089118C128D13D3E5139400E509
:10099E001264809480401FAB0F0511E511AA1070F0
:1009AE0002051014F9120A87FF1209C5E513151373
:0709BE0070D8151280D4224D
:100A2100EF14600E146012146016240370178D0FFA
:100A31008013ED2440F50F800CED2410F50F800597
:0D0A4100ED2450F50FE50F4480FF0209F38E
:100AA0008B0A8A0B890C120A21AB0AAA0BA90CAD7E
:060AB0000EAC0D02098EE0
:100A4E00E4FDFCC3ED9FEC9E5015E4FBFA0BBB00DE
:0F0A5E00010AEB64704A70F50DBD00010C80E4D5
:010A6D002266
:10089900020954E493A3F8E493A34003F68001F218
:1008A90008DFF48029E493A3F85407240CC8C33360
:1008B900C4540F4420C8834004F456800146F6DF2F
:1008C900E4800B0102040810204080900AB6E47EFF
:1008D900019360BCA3FF543F30E509541FFEE49324
:1008E900A360010ECF54C025E060A840B8E493A3EB
:1008F900FAE493A3F8E493A3C8C582C8CAC583CA16
:10090900F0A3C8C582C8CAC583CADFE9DEE780BECD
:010AC4000031
:100A8700BB010689828A83E0225002E722BBFE026D
:090A9700E32289828A83E49322A0
:00000001FF
