:03000000020600F5
:0100030032CA
:01000B0032C2
:0100130032BA
:01001B0032B2
:1000230032758DFF75985275884175892075985280
:1000330053877F438780D28E223098FDC298E599FB
:10004300223099FDC299F59922FA540F24F65002F1
:100053002407243ACAC4540F24F650022407243A2E
:100063002224D05017C324F64003240A22C2E5C336
:1000730024F95008C324FA4003540F222212004CDF
:10008300120044EA12004422740A120044740D124E
:1000930000442212003C120064C4F5F012003C122A
:1000A300006445F022120096FE22120096FFFC1215
:1000B3000096FDEF22C0E074A604000000000000DB
:1000C300000070F500D0E022D2901200D8C2901246
:1000D30000D8D29022C0E07491041200B81200B884
:1000E3001200B81200B81200B81200B81200B81209
:1000F30000B81200B8000000000070DD7433D5E0D2
:10010300FDD0E022B457061200A88E8022B4580610
:100113001200A88E9022B459061200A88EA022B411
:100123005A061200A88EB022B47706E5801200802A
:1001330022B47806E59012008022B47906E5A01275
:10014300008022B47A06E5B012008022B44C331248
:1001530000A8BE0003D28022BE0103D28122BE02C8
:1001630003D28222BE0303D28322BE0403D284229B
:10017300BE0503D28522BE0603D28622BE0702D263
:100183008722B44E331200A8BE0003D29022BE01D0
:1001930003D29122BE0203D29222BE0303D2932240
:1001A300BE0403D29422BE0503D29522BE0603D217
:1001B3009622BE0702D29722B451331200A8BE0082
:1001C30003D2A022BE0103D2A122BE0203D2A222E5
:1001D300BE0303D2A322BE0403D2A422BE0503D2CC
:1001E300A522BE0603D2A622BE0702D2A722B4537B
:1001F300271200A8BE0203D2B222BE0303D2B32247
:10020300BE0403D2B422BE0503D2B522BE0603D276
:10021300B622BE0702D2B722B46C331200A8BE00C6
:1002230003C28022BE0103C28122BE0203C2822214
:10023300BE0303C28322BE0403C28422BE0503C2DB
:100243008522BE0603C28622BE0702C28722B46E7F
:10025300331200A8BE0003C29022BE0103C2912242
:10026300BE0203C29222BE0303C29322BE0403C290
:100273009422BE0503C29522BE0603C29622BE0780
:1002830002C29722B471331200A8BE0003C2A02297
:10029300BE0103C2A122BE0203C2A222BE0303C245
:1002A300A322BE0403C2A422BE0503C2A522BE0626
:1002B30003C2A622BE0702C2A722B473271200A854
:1002C300BE0203C2B222BE0303C2B322BE0403C2F0
:1002D300B422BE0503C2B522BE0603C2B622BE07C0
:1002E30002C2B722B445541200A8E4BE0007A2809C
:1002F3003312008022BE0107A2813312008022BE86
:100303000207A2823312008022BE0307A2833312A4
:10031300008022BE0407A2843312008022BE050798
:10032300A2853312008022BE0607A2863312008004
:1003330022BE0706A2873312008022B4465412005D
:10034300A8E4BE0007A2903312008022BE0107A2D8
:10035300913312008022BE0207A292331200802240
:10036300BE0307A2933312008022BE0407A2943374
:1003730012008022BE0507A2953312008022BE061A
:1003830007A2963312008022BE0706A297331200FB
:0E0393008022B447541200A8E4BE0007A2A0C6
:1003A1003312008022BE0107A2A13312008022BEB7
:1003B1000207A2A23312008022BE0307A2A33312B6
:1003C100008022BE0407A2A43312008022BE0507CA
:1003D100A2A53312008022BE0607A2A63312008016
:1003E10022BE0706A2A73312008022B448401200A1
:1003F100A8E4BE0207A2B23312008022BE0307A204
:10040100B33312008022BE0407A2B433120080224B
:10041100BE0507A2B53312008022BE0607A2B6337D
:1004210012008022BE0706A2B73312008022B45404
:0D0431000B7448120044744F120044222244
:0E06000075812F12002412003C12010780F8B1
:00000001FF
