:03000000020AB041
:0C0AB000787FE4F6D8FD758109020A0C7D
:100A0C00120800E50964014508700FD292120A938E
:100A1C00120A93120A93C2928018120A67E50964AB
:100A2C000245087018D291120A93120A93120A9373
:100A3C00C291120A93120A93120A9380C3E50945D4
:100A4C000870BDD290120A93120A93120A93C290A4
:0B0A5C00120A93120A93120A9380A55D
:100A9300E4FFFEE4FDFC0DBD00010CED64644C704D
:0C0AA300F50FBF00010EBE03EABFE8E73C
:010AAF002224
:10080000D2A5D2A4D2A1D2A0D286D285D282D281C0
:10081000C280C2A620812AA282B350030209FF200F
:10082000A505A2A4B350030209FFD280D2A630814D
:1008300005A282B340030209FF30A505A2A4B3407C
:10084000030209FFC283C284C2A2C2A3A285E4FE3E
:1008500033FF3083093084067C007D0180047C00F6
:100860007D00EDB50717ECB5061330830320840433
:100870007F0180027F00A286E4336F60030209FFDC
:10088000A2A1E4FE33FF30A20930A3067C007D0163
:1008900080047C007D00EDB50717ECB5061330A28F
:1008A0000320A3047F0180027F00A2A0E4336F60D5
:1008B000030209FFC283D284C2A2D2A3A285E4FEAE
:1008C00033FF3083093084067C007D0180047C0086
:1008D0007D00EDB50717ECB50613308303208404C3
:1008E0007F0180027F00A286E4336F60030209FF6C
:1008F000A2A1E4FE33FF30A20930A3067C007D01F3
:1009000080047C007D00EDB50717ECB5061330A21E
:100910000320A3047F0180027F00A2A0E4336F6064
:10092000030209FFD283C284D2A2C2A3A285E4FE3D
:1009300033FF3083093084067C007D0180047C0015
:100940007D00EDB50717ECB5061330830320840452
:100950007F0180027F00A286E4336F60030209FFFB
:10096000A2A1E4FE33FF30A20930A3067C007D0182
:1009700080047C007D00EDB50717ECB5061330A2AE
:100980000320A3047F0180027F00A2A0E4336F60F4
:1009900002806CD283D284D2A2D2A3A285E4FE3399
:1009A000FF3083093084067C007D0180047C007D5B
:1009B00000EDB50717ECB506133083032084047FE0
:1009C0000180027F00A286E4336F60028031A2A121
:1009D000E4FE33FF30A20930A3067C007D018004D1
:1009E0007C007D00EDB50717ECB5061330A203209F
:1009F000A3047F0180027F00A2A0E4336F6006E4BD
:0C0A0000F508F5092275080075090122AF
:100A6700D285D2A1D280D282D284D283308513D2CA
:100A7700A6D2A4D2A2D2A330A10875080075090294
:0C0A87008005E4F508F509C283C2A32233
:00000001FF
